{
  "txns": [
    {
      "comment": "dice2win",
      "txid": "0xd167a156b82f7b8b48cf43982b61923a0e9515301f0f0caf1ed12abcdc6483a4",
      "raw": "0xf8ac83173fb48501b022388082fde894d1ceeeeee83f8bcf3bedad437202b6154e9f540580b844ca722cdc54ca3bebbf169baadcfabe373897aa54c85e086660ae218602e695be4c754268daee53fb9a81c4107458e874cca2f702bcc400537997a65649ddf85652d4c8291ba0522c9c61204d3536df9fa716a4c050d88fb50579aebe83ae8572e55ecac3ee96a047dd9984ca5fd0ccb99a309951b9e523b28104bcefe88eb48bfd75e5475ebee7",
      "tx": {
        "nonce": 1523636,
        "gasPrice": 7250000000,
        "gas": 65000,
        "to": "0xd1ceeeeee83f8bcf3bedad437202b6154e9f5405",
        "value": 0,
        "data": "0xca722cdc54ca3bebbf169baadcfabe373897aa54c85e086660ae218602e695be4c754268daee53fb9a81c4107458e874cca2f702bcc400537997a65649ddf85652d4c829",
        "v": 27,
        "r": "0x522c9c61204d3536df9fa716a4c050d88fb50579aebe83ae8572e55ecac3ee96",
        "s": "0x47dd9984ca5fd0ccb99a309951b9e523b28104bcefe88eb48bfd75e5475ebee7"
      },
      "call": {
        "selector": "0xca722cdc",
        "type_list": ["uint256", "bytes32"],
        "args": [
          "0x54ca3bebbf169baadcfabe373897aa54c85e086660ae218602e695be4c754268",
          "0xdaee53fb9a81c4107458e874cca2f702bcc400537997a65649ddf85652d4c829"
        ]
      }
    },
    {
      "comment": "EtherDelta",
      "txid": "0x682e4cdf185f1bff183806868d70afff798840d7e946a226bd89ad5410c94813",
      "raw": "0xf9018d8206358501a13b86008303d090948d12a197cb00d4747a1fe03395095ce2a5cc681980b90124278b8c0e0000000000000000000000004485561db76614ff727f8e0a3ea95690b8b1602200000000000000000000000000000000000000000000043c33c1937564800000000000000000000000000000000000000000000000000000000000000000000000000000000000000000000000000000000000000000000000b1a2bc2ec50000000000000000000000000000000000000000000000000000000000000682346f000000000000000000000000000000000000000000000000000000002c86ee8f000000000000000000000000000000000000000000000000000000000000001cc2afa107ecd0c1d8f77b502e5f722e9387288a024e50062933640fd7279ee463573c80d07eae5bf7e65a006828ef51514839efc53fd89faff9c2cf98e3e759a71ca0127a7fc81b8e3b9a244b811d4bf3e2f208f05521a7942ca703cea135ecb0e761a06aa2391ad9ad8522afb7d09641dae2370a1f89f5336fcac60d1f7d6f73e34ef2",
      "tx": {
        "nonce": 1589,
        "gasPrice": 7000000000,
        "gas": 250000,
        "to": "0x8d12a197cb00d4747a1fe03395095ce2a5cc6819",
        "value": 0,
        "data": "0x278b8c0e0000000000000000000000004485561db76614ff727f8e0a3ea95690b8b1602200000000000000000000000000000000000000000000043c33c1937564800000000000000000000000000000000000000000000000000000000000000000000000000000000000000000000000000000000000000000000000b1a2bc2ec50000000000000000000000000000000000000000000000000000000000000682346f000000000000000000000000000000000000000000000000000000002c86ee8f000000000000000000000000000000000000000000000000000000000000001cc2afa107ecd0c1d8f77b502e5f722e9387288a024e50062933640fd7279ee463573c80d07eae5bf7e65a006828ef51514839efc53fd89faff9c2cf98e3e759a7",
        "v": 28,
        "r": "0x127a7fc81b8e3b9a244b811d4bf3e2f208f05521a7942ca703cea135ecb0e761",
        "s": "0x6aa2391ad9ad8522afb7d09641dae2370a1f89f5336fcac60d1f7d6f73e34ef2"
      },
      "call": {
        "selector": "0x278b8c0e",
        "type_list": ["address", "uint256", "address", "uint256", "uint256", "uint256", "uint8", "bytes32", "bytes32"],
        "args": [
          "0x0000000000000000000000004485561db76614ff727f8e0a3ea95690b8b16022",
          "0x00000000000000000000000000000000000000000000043c33c1937564800000",
          "0x0000000000000000000000000000000000000000000000000000000000000000",
          "0x00000000000000000000000000000000000000000000000000b1a2bc2ec50000",
          "0x000000000000000000000000000000000000000000000000000000000682346f",
          "0x000000000000000000000000000000000000000000000000000000002c86ee8f",
          "0x000000000000000000000000000000000000000000000000000000000000001c",
          "0xc2afa107ecd0c1d8f77b502e5f722e9387288a024e50062933640fd7279ee463",
          "0x573c80d07eae5bf7e65a006828ef51514839efc53fd89faff9c2cf98e3e759a7"
        ]
      }
    }
  ]
}
